{
  "contractName": "HotelContract",
  "abi": [
    {
      "inputs": [],
      "stateMutability": "nonpayable",
      "type": "constructor"
    },
    {
      "inputs": [],
      "name": "manager",
      "outputs": [
        {
          "internalType": "address",
          "name": "",
          "type": "address"
        }
      ],
      "stateMutability": "view",
      "type": "function",
      "constant": true
    },
    {
      "inputs": [
        {
          "internalType": "int128",
          "name": "_phone_no",
          "type": "int128"
        },
        {
          "internalType": "int128",
          "name": "_salary",
          "type": "int128"
        },
        {
          "internalType": "string",
          "name": "_name",
          "type": "string"
        },
        {
          "internalType": "string",
          "name": "_house_address",
          "type": "string"
        }
      ],
      "name": "insert_employee",
      "outputs": [],
      "stateMutability": "nonpayable",
      "type": "function"
    },
    {
      "inputs": [
        {
          "internalType": "string",
          "name": "serve",
          "type": "string"
        },
        {
          "internalType": "uint256",
          "name": "amount",
          "type": "uint256"
        }
      ],
      "name": "insert_servicess",
      "outputs": [],
      "stateMutability": "nonpayable",
      "type": "function"
    },
    {
      "inputs": [
        {
          "internalType": "string",
          "name": "_service",
          "type": "string"
        }
      ],
      "name": "serviced",
      "outputs": [],
      "stateMutability": "nonpayable",
      "type": "function"
    },
    {
      "inputs": [
        {
          "internalType": "string",
          "name": "_name",
          "type": "string"
        },
        {
          "internalType": "int256",
          "name": "_phone_no",
          "type": "int256"
        },
        {
          "internalType": "int256",
          "name": "_room_no",
          "type": "int256"
        },
        {
          "internalType": "uint256",
          "name": "_amount",
          "type": "uint256"
        },
        {
          "internalType": "bool",
          "name": "_clear",
          "type": "bool"
        }
      ],
      "name": "insert_customers",
      "outputs": [],
      "stateMutability": "nonpayable",
      "type": "function"
    },
    {
      "inputs": [
        {
          "internalType": "string",
          "name": "_name",
          "type": "string"
        }
      ],
      "name": "getcustomer",
      "outputs": [
        {
          "components": [
            {
              "internalType": "string",
              "name": "name",
              "type": "string"
            },
            {
              "internalType": "int256",
              "name": "phone_no",
              "type": "int256"
            },
            {
              "internalType": "int256",
              "name": "room_no",
              "type": "int256"
            },
            {
              "internalType": "uint256",
              "name": "amount",
              "type": "uint256"
            },
            {
              "internalType": "bool",
              "name": "clear",
              "type": "bool"
            }
          ],
          "internalType": "struct HotelContract.customer",
          "name": "",
          "type": "tuple"
        }
      ],
      "stateMutability": "view",
      "type": "function",
      "constant": true
    }
  ],
  "bytecode": "0x608060405234801561001057600080fd5b50336000806101000a81548173ffffffffffffffffffffffffffffffffffffffff021916908373ffffffffffffffffffffffffffffffffffffffff16021790555061147f806100606000396000f3fe608060405234801561001057600080fd5b50600436106100625760003560e01c8063481c6a75146100675780636aeab376146100855780638310926a146100a1578063a88eccda146100bd578063ad86d2a2146100d9578063ada12c3a14610109575b600080fd5b61006f610125565b60405161007c9190610c47565b60405180910390f35b61009f600480360381019061009a9190610df5565b610149565b005b6100bb60048036038101906100b69190610e94565b6102d9565b005b6100d760048036038101906100d29190610f81565b61043d565b005b6100f360048036038101906100ee9190610e94565b6108d9565b6040516101009190611143565b60405180910390f35b610123600480360381019061011e9190611165565b610a47565b005b60008054906101000a900473ffffffffffffffffffffffffffffffffffffffff1681565b6040518060a001604052803373ffffffffffffffffffffffffffffffffffffffff16815260200185600f0b815260200184600f0b815260200183815260200182815250600560003373ffffffffffffffffffffffffffffffffffffffff1673ffffffffffffffffffffffffffffffffffffffff16815260200190815260200160002060008201518160000160006101000a81548173ffffffffffffffffffffffffffffffffffffffff021916908373ffffffffffffffffffffffffffffffffffffffff16021790555060208201518160010160006101000a8154816fffffffffffffffffffffffffffffffff0219169083600f0b6fffffffffffffffffffffffffffffffff16021790555060408201518160010160106101000a8154816fffffffffffffffffffffffffffffffff0219169083600f0b6fffffffffffffffffffffffffffffffff16021790555060608201518160020190805190602001906102b2929190610a6e565b5060808201518160030190805190602001906102cf929190610a6e565b5090505050505050565b6040518060400160405280600067ffffffffffffffff8111156102ff576102fe610cca565b5b60405190808252806020026020018201604052801561033257816020015b606081526020019060019003908161031d5790505b50815260200160011515815250600460003373ffffffffffffffffffffffffffffffffffffffff1673ffffffffffffffffffffffffffffffffffffffff168152602001908152602001600020600082015181600001908051906020019061039a929190610af4565b5060208201518160010160006101000a81548160ff021916908315150217905550905050600460003373ffffffffffffffffffffffffffffffffffffffff1673ffffffffffffffffffffffffffffffffffffffff16815260200190815260200160002060000181908060018154018082558091505060019003906000526020600020016000909190919091509080519060200190610439929190610a6e565b5050565b60008054906101000a900473ffffffffffffffffffffffffffffffffffffffff1673ffffffffffffffffffffffffffffffffffffffff163373ffffffffffffffffffffffffffffffffffffffff1614156104cc576040517f08c379a00000000000000000000000000000000000000000000000000000000081526004016104c39061121e565b60405180910390fd5b60011515600460003373ffffffffffffffffffffffffffffffffffffffff1673ffffffffffffffffffffffffffffffffffffffff16815260200190815260200160002060010160009054906101000a900460ff161515141561079b57600080600460003373ffffffffffffffffffffffffffffffffffffffff1673ffffffffffffffffffffffffffffffffffffffff16815260200190815260200160002060000180549050905060005b818110156106af576000600460003373ffffffffffffffffffffffffffffffffffffffff1673ffffffffffffffffffffffffffffffffffffffff16815260200190815260200160002060000182815481106105d4576105d361123e565b5b9060005260206000200180546105e99061129c565b80601f01602080910402602001604051908101604052809291908181526020018280546106159061129c565b80156106625780601f1061063757610100808354040283529160200191610662565b820191906000526020600020905b81548152906001019060200180831161064557829003601f168201915b50505050509050600060038260405161067b919061130a565b908152602001604051809103902054905080856106989190611350565b9450505080806106a7906113a6565b915050610576565b506040518060a00160405280888152602001878152602001868152602001670de0b6b3a7640000846106e191906113ef565b866106ec9190611350565b8152602001841515815250600260003373ffffffffffffffffffffffffffffffffffffffff1673ffffffffffffffffffffffffffffffffffffffff1681526020019081526020016000206000820151816000019080519060200190610752929190610a6e565b5060208201518160010155604082015181600201556060820151816003015560808201518160040160006101000a81548160ff0219169083151502179055509050505050610875565b6040518060a00160405280868152602001858152602001848152602001670de0b6b3a7640000846107cc91906113ef565b8152602001821515815250600260003373ffffffffffffffffffffffffffffffffffffffff1673ffffffffffffffffffffffffffffffffffffffff1681526020019081526020016000206000820151816000019080519060200190610832929190610a6e565b5060208201518160010155604082015181600201556060820151816003015560808201518160040160006101000a81548160ff0219169083151502179055509050505b33600186604051610886919061130a565b908152602001604051809103902060006101000a81548173ffffffffffffffffffffffffffffffffffffffff021916908373ffffffffffffffffffffffffffffffffffffffff1602179055505050505050565b6108e1610b54565b60006001836040516108f3919061130a565b908152602001604051809103902060009054906101000a900473ffffffffffffffffffffffffffffffffffffffff1690506000600260008373ffffffffffffffffffffffffffffffffffffffff1673ffffffffffffffffffffffffffffffffffffffff1681526020019081526020016000206040518060a00160405290816000820180546109809061129c565b80601f01602080910402602001604051908101604052809291908181526020018280546109ac9061129c565b80156109f95780601f106109ce576101008083540402835291602001916109f9565b820191906000526020600020905b8154815290600101906020018083116109dc57829003601f168201915b505050505081526020016001820154815260200160028201548152602001600382015481526020016004820160009054906101000a900460ff16151515158152505090508092505050919050565b80600383604051610a58919061130a565b9081526020016040518091039020819055505050565b828054610a7a9061129c565b90600052602060002090601f016020900481019282610a9c5760008555610ae3565b82601f10610ab557805160ff1916838001178555610ae3565b82800160010185558215610ae3579182015b82811115610ae2578251825591602001919060010190610ac7565b5b509050610af09190610b85565b5090565b828054828255906000526020600020908101928215610b43579160200282015b82811115610b42578251829080519060200190610b32929190610a6e565b5091602001919060010190610b14565b5b509050610b509190610ba2565b5090565b6040518060a00160405280606081526020016000815260200160008152602001600081526020016000151581525090565b5b80821115610b9e576000816000905550600101610b86565b5090565b5b80821115610bc25760008181610bb99190610bc6565b50600101610ba3565b5090565b508054610bd29061129c565b6000825580601f10610be45750610c03565b601f016020900490600052602060002090810190610c029190610b85565b5b50565b600073ffffffffffffffffffffffffffffffffffffffff82169050919050565b6000610c3182610c06565b9050919050565b610c4181610c26565b82525050565b6000602082019050610c5c6000830184610c38565b92915050565b6000604051905090565b600080fd5b600080fd5b600081600f0b9050919050565b610c8c81610c76565b8114610c9757600080fd5b50565b600081359050610ca981610c83565b92915050565b600080fd5b600080fd5b6000601f19601f8301169050919050565b7f4e487b7100000000000000000000000000000000000000000000000000000000600052604160045260246000fd5b610d0282610cb9565b810181811067ffffffffffffffff82111715610d2157610d20610cca565b5b80604052505050565b6000610d34610c62565b9050610d408282610cf9565b919050565b600067ffffffffffffffff821115610d6057610d5f610cca565b5b610d6982610cb9565b9050602081019050919050565b82818337600083830152505050565b6000610d98610d9384610d45565b610d2a565b905082815260208101848484011115610db457610db3610cb4565b5b610dbf848285610d76565b509392505050565b600082601f830112610ddc57610ddb610caf565b5b8135610dec848260208601610d85565b91505092915050565b60008060008060808587031215610e0f57610e0e610c6c565b5b6000610e1d87828801610c9a565b9450506020610e2e87828801610c9a565b935050604085013567ffffffffffffffff811115610e4f57610e4e610c71565b5b610e5b87828801610dc7565b925050606085013567ffffffffffffffff811115610e7c57610e7b610c71565b5b610e8887828801610dc7565b91505092959194509250565b600060208284031215610eaa57610ea9610c6c565b5b600082013567ffffffffffffffff811115610ec857610ec7610c71565b5b610ed484828501610dc7565b91505092915050565b6000819050919050565b610ef081610edd565b8114610efb57600080fd5b50565b600081359050610f0d81610ee7565b92915050565b6000819050919050565b610f2681610f13565b8114610f3157600080fd5b50565b600081359050610f4381610f1d565b92915050565b60008115159050919050565b610f5e81610f49565b8114610f6957600080fd5b50565b600081359050610f7b81610f55565b92915050565b600080600080600060a08688031215610f9d57610f9c610c6c565b5b600086013567ffffffffffffffff811115610fbb57610fba610c71565b5b610fc788828901610dc7565b9550506020610fd888828901610efe565b9450506040610fe988828901610efe565b9350506060610ffa88828901610f34565b925050608061100b88828901610f6c565b9150509295509295909350565b600081519050919050565b600082825260208201905092915050565b60005b83811015611052578082015181840152602081019050611037565b83811115611061576000848401525b50505050565b600061107282611018565b61107c8185611023565b935061108c818560208601611034565b61109581610cb9565b840191505092915050565b6110a981610edd565b82525050565b6110b881610f13565b82525050565b6110c781610f49565b82525050565b600060a08301600083015184820360008601526110ea8282611067565b91505060208301516110ff60208601826110a0565b50604083015161111260408601826110a0565b50606083015161112560608601826110af565b50608083015161113860808601826110be565b508091505092915050565b6000602082019050818103600083015261115d81846110cd565b905092915050565b6000806040838503121561117c5761117b610c6c565b5b600083013567ffffffffffffffff81111561119a57611199610c71565b5b6111a685828601610dc7565b92505060206111b785828601610f34565b9150509250929050565b600082825260208201905092915050565b7f63616e6e6f742072656769737465720000000000000000000000000000000000600082015250565b6000611208600f836111c1565b9150611213826111d2565b602082019050919050565b60006020820190508181036000830152611237816111fb565b9050919050565b7f4e487b7100000000000000000000000000000000000000000000000000000000600052603260045260246000fd5b7f4e487b7100000000000000000000000000000000000000000000000000000000600052602260045260246000fd5b600060028204905060018216806112b457607f821691505b602082108114156112c8576112c761126d565b5b50919050565b600081905092915050565b60006112e482611018565b6112ee81856112ce565b93506112fe818560208601611034565b80840191505092915050565b600061131682846112d9565b915081905092915050565b7f4e487b7100000000000000000000000000000000000000000000000000000000600052601160045260246000fd5b600061135b82610f13565b915061136683610f13565b9250827fffffffffffffffffffffffffffffffffffffffffffffffffffffffffffffffff0382111561139b5761139a611321565b5b828201905092915050565b60006113b182610f13565b91507fffffffffffffffffffffffffffffffffffffffffffffffffffffffffffffffff8214156113e4576113e3611321565b5b600182019050919050565b60006113fa82610f13565b915061140583610f13565b9250817fffffffffffffffffffffffffffffffffffffffffffffffffffffffffffffffff048311821515161561143e5761143d611321565b5b82820290509291505056fea26469706673582212206bd0c277aec477c8c47a6d59d8348ee0dbc9611b0aa6f40b8b935bceb19d46d464736f6c63430008080033",
  "immutableReferences": {},
  "source": "// SPDX-License-Identifier:MIT\r\npragma solidity ^0.8.8;\r\n\r\ncontract HotelContract\r\n{\r\n    struct customer\r\n    {\r\n        string name;\r\n        int phone_no;\r\n        int room_no;\r\n        uint256 amount;\r\n        bool clear;\r\n\r\n    }\r\n\r\n    struct staff\r\n    {\r\n        address id;\r\n        int128 phone_no;\r\n        int128 salary;\r\n        string name;\r\n        string house_address;\r\n    }\r\n\r\n    struct service_taken\r\n    {\r\n        string [] _served;\r\n        bool taken;\r\n    }\r\n\r\n    address  public manager;\r\n    mapping(string =>address) cust_address;\r\n    mapping(address=>customer) cust; //total customers\r\n    mapping(string=>uint)services; // total services provided\r\n    mapping(address=>service_taken)service_cus; // services taken by customer\r\n    mapping(address=>staff)employe; // hotel staff list\r\n    int128 i;\r\n\r\n    constructor ()\r\n    {\r\n        manager=msg.sender;\r\n    }\r\n\r\n    function insert_employee (int128 _phone_no,int128 _salary,string memory _name,string memory _house_address ) public \r\n    {\r\n        employe[msg.sender]=staff(msg.sender,_phone_no,_salary,_name,_house_address);\r\n    }\r\n\r\n    function insert_servicess(string memory serve,uint amount) external {\r\n        services[serve]=amount;\r\n    }\r\n\r\n    function serviced(string memory _service) public {\r\n        service_cus[msg.sender] = service_taken({ _served: new string[](0), taken: true });\r\n        service_cus[msg.sender]._served.push(_service);\r\n    }\r\n\r\n    function insert_customers ( string memory _name,  int _phone_no, int _room_no,  uint256 _amount,bool _clear) public\r\n    {\r\n        require(msg.sender!=manager,\"cannot register\");\r\n        if(service_cus[msg.sender].taken==true)\r\n        {\r\n            uint additional_amount;\r\n            uint len=service_cus[msg.sender]._served.length;\r\n            for(uint itr=0;itr<len;itr++)\r\n            {\r\n                string memory temp=service_cus[msg.sender]._served[itr];\r\n                uint ans=services[temp];\r\n                additional_amount+=ans;\r\n            }\r\n            cust[msg.sender]=customer(_name,_phone_no,_room_no,_amount+additional_amount * 1 ether,_clear);\r\n        }\r\n        else \r\n        {\r\n            cust[msg.sender]=customer( _name,_phone_no,_room_no,_amount * 1 ether,_clear);\r\n        }\r\n        cust_address[_name]=msg.sender;\r\n    } \r\n\r\n    function getcustomer(string memory _name) public view returns(customer memory)\r\n    {\r\n        address _address=cust_address[_name];\r\n        customer memory result=cust[_address];\r\n        return result;\r\n    }\r\n\r\n}",
  "sourcePath": "C:\\Users\\DIKSHANT NEGI\\OneDrive\\Desktop\\blockchain\\contracts\\HotelContract.sol",
  "compiler": {
    "name": "solc",
    "version": "0.8.8+commit.dddeac2f.Emscripten.clang"
  },
  "schemaVersion": "3.4.16",
  "updatedAt": "2023-11-26T09:14:49.263Z",
  "networkType": "ethereum",
  "devdoc": {
    "kind": "dev",
    "methods": {},
    "version": 1
  },
  "userdoc": {
    "kind": "user",
    "methods": {},
    "version": 1
  }
}